:020000040800F2
:1000000000050020D5000008290600082506000884
:1000100000000000000000000000000000000000E0
:100020000000000000000000000000003106000891
:1000300000000000000000002D0600081B01000861
:100040001D0100081D0100081D0100081D01000818
:100050001D0100089D040008C1040008E504000813
:100060001D010008EB030008FF0300082504000839
:100070001D010008490800081D0100085D0800086E
:1000800071080008850800081D0100080D08000817
:100090001D01000821080008350800081D0100089E
:1000A0001D0100081D0100081D0100089908000835
:1000B000050900080000000000000000000000002A
:1000C0000348854600F04AF900480047810F0008C0
:1000D00000050020124880F3088812480168090EC4
:1000E000114A914205D11148114901601148124944
:1000F0000160124812490160124813490160134817
:10010000114901600D480C490160114880471148B0
:100110000047FEE7FEE7FEE7FEE7FEE7FEE700003A
:1001200000050020040000001F000000181002401D
:100130000100000000000140000000001C1002400F
:100140000000000418680040120000001C68004015
:10015000A1070008C100000830B50B460146002089
:100160002022012409E00D46D5409D4205D31D46BD
:100170009540491B2546954040191546521E002DB5
:10018000F1DC30BD70B500242546002801DA0124D9
:100190004042002901DA01254942FFF7DDFFAC4268
:1001A00000D04042002C00D0494270BD024670B5DC
:1001B0004A40D30FDB0740002DD04A002AD0010E61
:1001C000140E000212020919400A520A8418E501AD
:1001D00004465443000A120A2E045043A41942193B
:1001E000200CC543AA18120C0125AD03521C52194C
:1001F00012047F39240400D0521C104301D4400063
:10020000491EC2B20C06C0092018401C4008802AB2
:1002100002D003E0002070BD40084000002900DA51
:100220000020184370BD70B502464A40D50F40000B
:100230004A00ED0740085208002814D0002A12D0C6
:10024000C40DD30D41020120C0055202490A520AD1
:10025000E41A091812187D34914201D3641C00E09D
:100260004900002C01DA002070BD0023914201D327
:10027000891A0343400849000028F7D100290AD011
:10028000914202D10121C90705E0914201D2012129
:1002900001E00121C943E005C018401900F01CF835
:1002A00070BD10B500229623114600F01DF810BD58
:1002B000410040020122400AD205090E80187F2920
:1002C00001DA00207047962903DC9622511AC840B3
:1002D0007047963988407047002904DA401C49006D
:1002E00001D140084000704770B40024050C05D1CE
:1002F0001024000402D1002921D01124050E01D1BF
:1003000000020834050F01D10001241D850F01D121
:100310008000A41C002801DB4000641C002908D0D8
:1003200020252E1B0D46F540A14000D00121294378
:10033000084301061B1B000ADB1D02D5002070BC10
:100340007047DB05181880180029F8DA401C4900AE
:10035000F5D170BC4008400070470000064C0125F4
:10036000064E05E0E36807CC2B430C3C984710345D
:10037000B442F7D3FFF7A8FE6833000888330008BB
:10038000FFB583B00C46029400200190002726E0C0
:1003900000261CE0721C039951430846791CFFF7A4
:1003A000DBFE0546A54201D9281B00E0601B05467F
:1003B0000298A84204D9029505980670069807701D
:1003C0000298002802D10120019002E0761C402E04
:1003D000E0D300BF0198002800D002E07F1C042F6A
:1003E000D6D300BF029807B0F0BD10B5022000F0D0
:1003F00049F8012802D1022000F03EF810BD10B5E6
:10040000202000F03FF8012802D1202000F034F82D
:100410000120400200F036F8012802D1400200F02D
:100420002BF810BD10B50120400300F02BF8012877
:1004300016D1400300F020F80E480078012804D0BF
:10044000022805D0032809D105E000F021FE06E0CE
:1004500000F02EFE03E000F0A9FD00E000BF00BFA9
:100460000120400400F00EF8012802D1400400F001
:1004700003F810BD040000200149486070470000E7
:10048000000002400146044800680840002801D0EE
:10049000012070470020FCE70000024010B5012059
:1004A00000F0AEF8002802D0012000F0A3F80220EE
:1004B00000F0A6F8002802D0022000F09BF810BD42
:1004C00010B5042000F09CF8002802D0042000F0B1
:1004D00091F8082000F094F8002802D0082000F0DD
:1004E00089F810BD10B5102000F08AF8002802D05D
:1004F000102000F07FF8202000F082F8002802D0C1
:10050000202000F077F8402000F07AF8002802D090
:10051000402000F06FF8802000F072F8002816D01C
:1005200033480078012804D0022805D0032809D1D7
:1005300005E000F0DBFD06E000F0CAFD03E000F09E
:100540006FFD00E000BF00BF802000F053F8FF20E7
:10055000013000F055F8002803D0FF20013000F0F2
:1005600049F80120400200F04BF8002803D0012098
:10057000400200F03FF80120800200F041F800281E
:1005800003D00120800200F035F80120C00200F005
:1005900037F8002803D00120C00200F02BF801201A
:1005A000000300F02DF8002803D00120000300F024
:1005B00021F80120400300F023F8002803D0012097
:1005C000400300F017F80120800300F019F800281C
:1005D00003D00120800300F00DF80120C00300F0DB
:1005E0000FF8002803D00120C00300F003F810BD6D
:1005F00004000020014948617047000000040140E8
:100600000146074840690840002806D004480068B1
:100610000840002801D0012070470020FCE70000BE
:100620000004014000BFFEE700BFFEE700BFFEE799
:1006300000BFFEE710B500F001F810BD7FB5002047
:1006400003900290504800680121090408434E4974
:10065000086000BF4C48006801214904084002902E
:100660000398401C03900298002804D10521090238
:1006700003988842EED144480068012149040840AB
:10068000002809D0012002907D24240100BF2046CB
:10069000641E0028FBD101E000200290029801288E
:1006A00070D13A483A4908603A4800681021084336
:1006B0003849086008460068C008C000086034492E
:1006C0000968481E3449FFF747FD05463148006870
:1006D0002843304908602C4840682B494860084648
:1006E0004068486008464068486008464068032102
:1006F0000904884324494860084600680003000B49
:100700000860084640680121090408431E49486002
:100710006B4601AA1E4801682048FFF731FE1A48BF
:1007200000680003000B18490860694608798006D4
:100730000978090508431449096808431249086003
:10074000084600680121090608430F49086000BFF8
:100750000D4800680121490608400028F8D00A48E1
:1007600040688008800008494860084640680221C7
:1007700008430549486000BF034840680C21084011
:100780000828F9D17FBD00000010024000D8B8054C
:100790000C0000200020024000366E0100127A009A
:1007A00010B516480068012108431449086008463E
:1007B00040681349084011494860084600681149DB
:1007C00008400E49086008460068012189048843F2
:1007D0000A49086008464068C3210904884307495C
:1007E00048600846006808490840044908609F209E
:1007F00000048860FFF71EFF10BD000000100240DB
:100800000CC0FFF8FFFFF6FEFFFF8F0003490869E9
:1008100009698143014A11617047000000400140AD
:100820000349086909698143014A11617047000061
:10083000004401400349086909698143014A116183
:100840007047000000480140034908690969814375
:10085000014A116170470000002C01400121890705
:1008600008690969814301229207116170470000FC
:100870000349086909698143014A11617047000011
:10088000000400400349086909698143014A116174
:10089000704700000008014010B51748C068C00745
:1008A000C00F002805D014484069012108431249AF
:1008B00048611148C0680221084000281BD00F4839
:1008C0000078401C40B20D4908700D49002000F02E
:1008D000EDFE0B4802780021084600F0ADFA07480B
:1008E00002780121002000F0A7FA034840690221A4
:1008F00008430149486110BD003801400000002054
:100900000100002010B51448C068C007C00F0028BF
:1009100005D011484069012108430F4948610E483C
:10092000C06802210840002814D00C480078022832
:1009300002D0032806D102E000F080FB03E000F0C3
:1009400045FB00E000BF00BF0348406902210843A7
:100950000149486110BD000000440040040000202F
:1009600002E008C8121F08C1002AFAD17047704778
:10097000002001E001C1121F002AFBD170470000D6
:10098000FFB504460D461746F023234019112207F0
:10099000120F2F4B5B69012676048E4033432C4E99
:1009A0007361082A25DA8B002A4EF358186A9600DC
:1009B0000F23B34006469E43304696003B46B34065
:1009C00018438B00234EF35818628B00F3581868B5
:1009D00096000F23B34006469E4330462B46039EA7
:1009E00033439600B34018438B001A4EF3581860F7
:1009F0002CE08B00174EF358586A1346083B9E00B4
:100A00000F23B34006469E4330461346083B9E00E4
:100A10003B46B34018438B000E4EF35858628B0090
:100A2000F35858681346083B9E000F23B340064610
:100A30009E4330462B46039E33431646083EB6007F
:100A4000B34018438B00034EF3585860FFBD0000BD
:100A5000001002402000002010B50446002C07D0F2
:100A6000FF230B335A1EE1214902002000F030FE23
:100A700010BD0000FFB50C46F02505402A11030704
:100A80001B0F2C4D6D690126760496403543294E87
:100A90007561082B13DA9500274E755929689E0059
:100AA0000F25B5400E46AE433146039D25439E00BB
:100AB000B54029439500204E7559296016E09500F0
:100AC0001D4E755969681D46083DAE000F25B5409D
:100AD0000E46AE433146039D25431E46083EB600F2
:100AE000B54029439500144E75596960029D002D4B
:100AF0000FD00511AD00104E75592D6907073F0F36
:100B00000126BE4035430611B6000B4FBE59356174
:100B10000EE00511AD00084E75596D6907073F0FCE
:100B20000126BE4035430611B600034FBE5975611C
:100B3000FFBD0000001002402000002070B50646F6
:100B40008623EF220021084600F018F900240AE06D
:100B5000002504E0304600F0E9F9681C85B2872DD5
:100B6000F8DB601C84B2F02CF2DB70BD0EB57E4861
:100B70000068400800217D4A1346009201910290CE
:100B80007B4A511E012000F03BFC0023012203217F
:100B90002F20FFF76FFF00231A4603212E20FFF7B7
:100BA00069FF00231A4603212D20FFF763FF00236E
:100BB000012203212A20FFF75DFF6E48806840690B
:100BC0000121490308436B4989684861C82000F046
:100BD00059FD684880680069012149030843654957
:100BE00089680861642000F04DFD362000F078F936
:100BF000642000F047FDA02000F04CF93A2000F0FE
:100C00006FF9052000F046F9B22000F069F90C20D8
:100C100000F040F90C2000F03DF9002000F03AF916
:100C2000332000F037F9332000F034F9B72000F01A
:100C300057F9352000F02EF9BB2000F051F937208C
:100C400000F028F9C02000F04BF92C2000F022F928
:100C5000C22000F045F9012000F01CF9C32000F08B
:100C60003FF9122000F016F9C42000F039F92020D5
:100C700000F010F9C62000F033F90F2000F00AF957
:100C8000D02000F02DF9A42000F004F9A12000F0FC
:100C900001F9E02000F024F9D02000F0FBF8042056
:100CA00000F0F8F80D2000F0F5F8112000F0F2F84F
:100CB000132000F0EFF82B2000F0ECF83F2000F0BC
:100CC000E9F8542000F0E6F84C2000F0E3F8182092
:100CD00000F0E0F80D2000F0DDF80B2000F0DAF86D
:100CE0001F2000F0D7F8232000F0D4F8E12000F016
:100CF000F7F8D02000F0CEF8042000F0CBF80C205C
:100D000000F0C8F8112000F0C5F8132000F0C2F878
:100D10002C2000F0BFF83F2000F0BCF8442000F089
:100D2000B9F8512000F0B6F82F2000F0B3F81F20DA
:100D300000F0B0F81F2000F0ADF8202000F0AAF875
:100D4000232000F0A7F8212000F0CAF8112000F0BD
:100D5000C7F8782000F096FC292000F0C1F806487A
:100D6000FFF7ECFE0EBD00000C000020FF0F00009E
:100D70002C05000020000020FFFF0000F8B504460D
:100D80000D4616461F462A2000F0AAF821462831B3
:100D900088B200F0CBF83146283188B200F0C6F8AE
:100DA0002B2000F09DF82946343188B200F0BEF8BF
:100DB0003946343188B200F0B9F82C2000F090F8B0
:100DC000F8BD0000FEB506460D46174600242BE090
:100DD000281983B2F01D82B2281981B23046FFF77C
:100DE000CDFF38462038000111494018005D0090C1
:100DF0000020019013E00098C007C00F002804D025
:100E00001F20C00200F092F802E00A4800F08EF8BD
:100E10000098401000900198401CC0B201900198C9
:100E20000828E8DB601CC4B2102CD1DBFEBD00003A
:100E3000E0170008FFFF0000FEB505460E46174606
:100E400064213846FFF79EF9C1B2684601710A2154
:100E50003846FFF797F90A210090FFF793F96846A3
:100E600041710A213846FFF78DF9684681710024E7
:100E70000CE001AB1B5D30335AB23305190CE300B3
:100E80005B1998B2FFF79EFF601CC4B2032CF0DB25
:100E9000FEBD000001B51148806840690121C90309
:100EA00008430E49896848610C488068006901213F
:100EB00089030843094989680861012300226946BA
:100EC000184600F067FB0548806800690121C903E6
:100ED000084302498968086108BD0000200000201D
:100EE00001B51148806840690121C90308430E49D2
:100EF000896848610C48806840690121890308437A
:100F0000094989684861012300226946184600F0B2
:100F100041FB0548806800690121C9030843024973
:100F20008968086108BD00002000002038B504462B
:100F30001248806840690121C90308430F49896844
:100F4000486121126846017044700C48806800694D
:100F500001218903084309498968086102230022A5
:100F60006946012000F016FB0448806800690121F1
:100F7000C903084301498968086138BD2000002081
:100F80000120FFF769FD00F0FBF9FFF7EFFDFF23FC
:100F90000B335A1E4B21C901002000F099FB03E0DE
:100FA0006421002000F00CFCFAE7000004484068CF
:100FB000044908400249486001200349087070470D
:100FC00040000240FEFF0000620000201048406820
:100FD00040681049104A127888540F480078401C25
:100FE0000D49087008460078012805D109480078A5
:100FF000A52801D00020087007480078032805D1F3
:10100000002005490870012004490870704700005D
:1010100054000020630000206600002067000020CC
:101020000448054988600846406801210843024990
:1010300048607047B82400004000024010484068F3
:1010400040681049104A127888540F480078401CB4
:101050000D49087008460078012805D10948007834
:10106000A52801D00020087007480078032805D182
:1010700000200549087001200449087070470000ED
:1010800054000020DA000020DD000020DE000020F7
:101090000448406804490840024948600120034967
:1010A0000870704740000240FEFF00005E00002014
:1010B0000448406804490840024948600120034947
:1010C0000870704740000240FEFF0000AC000020A6
:1010D0004B204001044988600846406801210843CC
:1010E0000149486070470000400002404B20400129
:1010F0000449886008464068012108430149486066
:101100007047000040000240FFB585B004460E461F
:1011100095490898884201D909B0F0BD93480799CC
:101120000068FFF719F84000070C9048079900681D
:10113000FFF712F8791C0390FFF70EF880B20490C5
:101140000898FFF7AEF88A490090FFF76CF8029014
:101150000498FFF7A6F801900299FFF727F803908B
:10116000FFF7A6F885B2304600F03EF90F200003E5
:10117000204000280BD07F488069FF2109012140D1
:101180000A110121914008437A4988610AE07948AF
:10119000C069FF21090121400A1101219140084342
:1011A0007449C8612107890E734A51580498C8626E
:1011B0002007800E114608588762E0202107890E1B
:1011C000515808600120C0032107890E5158486416
:1011D0000F200003304001210903401A06D0401AB5
:1011E0002CD0401A54D0401A27D17AE02007800E24
:1011F000614908588069602108432107890E5E4AC9
:10120000515888612007800E1146085880690821CE
:1012100008432107890E515888612007800E114626
:101220000858006A052108432107890E51580862B1
:101230002007800E1146085845637DE02007800E88
:101240004D49085880690321490308432107890E45
:10125000494A515888612007800E11460858806914
:101260000121C90208432107890E515888612007CE
:10127000800E11460858006A502108432107890E44
:10128000515808622007800E11460858856353E0C4
:101290002007800E38490858C0696021084321079B
:1012A000890E354A5158C8612007800E11460858EA
:1012B000C069082108432107890E5158C8612007D9
:1012C000800E11460858006A0521090208432107CB
:1012D000890E515808622007800E11460858C563D0
:1012E0002AE02007800E24490858C06903214903D9
:1012F00008432107890E204A5158C8612007800EF3
:1013000011460858C0690121C90208432107890E06
:101310005158C8612007800E11460858006A012103
:10132000090308432107890E515808622007800EDF
:1013300011460858056400BF00BF2007800E0E4903
:101340000858006A2107890E0C4A50502007800E69
:10135000094908580068012108432107890E064AF7
:101360005158086000BFD7E650C300000C000020B1
:10137000005043470010024038000020E0000020E9
:1013800010B5124B1A4612491248FFF7BDFE124B18
:101390005A1012490F48FFF7B7FE114B0B4A11497B
:1013A0000C48FFF7B1FE0823022203210720FFF7B4
:1013B000E7FA0823032211460220FFF7E1FA082387
:1013C000032211460420FFF7DBFA10BD10270000AE
:1013D00008120000B0100000204E000001230000A1
:1013E000307500000333000010B504460F210902D8
:1013F00021400A12E0B208230321FFF7C1FA10BD11
:10140000F8B504460D4616461F463A46314628466C
:10141000069B00F0F1F8002C07D15B4880690121A0
:10142000090308435849886106E05748C06901210B
:10143000890308435449C861A00054490858806989
:1014400004210843A100514A51588861A000114667
:101450000858C06908210843A1005158C86107987D
:10146000002806D0012818D002282AD0032850D1FD
:101470003BE0A00045490858C06902218843A1000B
:10148000424A5158C861A00011460858C06901215C
:101490000843A1005158C8613BE0A0003B490858EF
:1014A000C06902218843A100384A5158C861A00090
:1014B00011460858C06940084000A1005158C86151
:1014C00027E0A00031490858C06902210843A10063
:1014D0002E4A5158C861A00011460858C069012120
:1014E0000843A1005158C86113E0A00027490858DB
:1014F000C06902210843A100244A5158C861A000D4
:1015000011460858C06940084000A1005158C86100
:1015100000BF00BFA0001D49085880690121890251
:101520008843A100194A51588861A0001146085803
:10153000C06910210843A1005158C8611448089996
:101540000068FEF709FEA100104A51580862A00089
:1015500011460858C06904218843A1005158C86148
:10156000A00011460858806918210843A10051586D
:101570008861A00011460858806901210843A10034
:1015800051588861F8BD0000001002403000002072
:101590000C00002070B500BF8400164D2C59A468C3
:1015A000E407E40F002CF7D01FE00C788500114E03
:1015B00075592C60491C00BF84000E4D2C59A4683D
:1015C000E407E40F002CF7D0002A0ED000BF8400FF
:1015D000084D2C59A46802252C40002CF7D084001B
:1015E000044D2C5964681470521C1C465B1E002C60
:1015F000DBD170BD30000020F8B506460F4614461A
:101600001D460F21090231400A12F0B208230321BE
:10161000FFF7B6F90F21090239400A12F8B2082380
:101620000321FFF7ADF90C48844208D00F210902CD
:1016300021400A12E0B208230021FFF7A1F9064871
:10164000854208D00F21090229400A12E8B2082376
:101650000321FFF795F9F8BDFF0F00000021084AAC
:101660001161411E5161002191610521116100BF8D
:10167000034909690122120411400029F8D070477A
:1016800000E000E070B5044608E07D21C90006488E
:101690000068FEF761FD0546FFF7E0FF2046641E87
:1016A0000028F2D170BD00000C00002000BF8200B5
:1016B000064B9A58926802231A40002AF7D08200FB
:1016C000024B9A5852680A7070470000540000207C
:1016D000F8B504460F4615461E463146284600F02A
:1016E00059F8002C02D0012C4AD124E02548806909
:1016F000012189030843234988613946224800684B
:10170000FEF72AFD00092149086239461E48006893
:10171000FEF722FD0007000F1C4948620846C06919
:10172000302108431949C8610846806919210843D6
:101730001649886124E01348C0690121490408431F
:101740001049C861394610480068FEF705FD0009D8
:101750000F49086239460C480068FEF7FDFC000797
:10176000000F0B4948620846C06930210843084908
:10177000C86108468069192108430549886100BF8E
:1017800000BFF8BD001002400C00002000380140EE
:101790000044004070B504460D460F210902214067
:1017A0000A12E0B208230321FFF7EAF80F21090229
:1017B00029400A12E8B208230021FFF7E1F870BDC2
:1017C0008200064B9A58116000BF8200034B9A5862
:1017D0009268D207D20F002AF7D070475400002039
:1017E00000000000000000000000000000000000F9
:1017F00000000008080808080808000008080000A1
:101800000048242412000000000000000000000036
:101810000000004848487E2424247E24242400001C
:101820000000103C5252121C30505052523C1010CA
:10183000000000222515150D2A585454522200008C
:101840000000000C1212120A76252919916E000070
:101850000006040402000000000000000000000078
:101860000040201010080808080808101020400048
:1018700000020408081010101010100808040200DC
:101880000000000008086B1C1C6B0808000000002A
:101890000000000000101010FE10101000000000EA
:1018A0000000000000000000000000000604040228
:1018B00000000000000000007E00000000000000AA
:1018C000000000000000000000000000060600000C
:1018D0000000402020201010080808040402020024
:1018E00000000018244242424242424224180000B2
:1018F000000000101C10101010101010107C0000C0
:101900000000003C4242424020100804427E000099
:101910000000003C4242402018204042423C00006F
:1019200000000020303028242422FE2020F800006F
:101930000000007E0202021E22404042221C0000E3
:10194000000000182402023A464242424438000095
:101950000000007E4220201010080808080800003F
:101960000000003C4242422418244242423C000013
:101970000000001C22424242625C404024180000E9
:1019800000000000000018180000000018180000F7
:101990000000000000000008000000000008080827
:1019A000000000402010080402040810204000003D
:1019B0000000000000007E00007E0000000000002B
:1019C000000000020408102040201008040200005B
:1019D0000000003C42424620101010001818000081
:1019E0000000001C225A55555555553A423C0000FE
:1019F0000000000808181414243C224242E70000AA
:101A00000000001F2222221E22424242221F00000A
:101A10000000007C4242010101010142221C000041
:101A20000000001F2242424242424242221F000066
:101A30000000003F4212121E12120242423F0000FA
:101A40000000003F4212121E1212020202070000A2
:101A50000000003C2222010101712122221C000011
:101A6000000000E7424242427E42424242E700001A
:101A70000000003E0808080808080808083E0000A2
:101A80000000007C10101010101010101010110F1A
:101A90000000007722120A0E0A121222227700009A
:101AA000000000070202020202020202427F00005E
:101AB0000000007736363636362A2A2A2A6B00008E
:101AC000000000E346464A4A525252626247000012
:101AD0000000001C2241414141414141221C0000C3
:101AE0000000003F424242423E0202020207000062
:101AF0000000001C224141414141414D321C600027
:101B00000000003F4242423E1212222242C7000021
:101B10000000007C4242020418204042423E000085
:101B20000000007F4908080808080808081C000091
:101B3000000000E74242424242424242423C000030
:101B4000000000E742422224241414180808000070
:101B50000000006B2A2A2A2A2A36141414140000C2
:101B6000000000E7422424181818242442E700004B
:101B7000000000772222141408080808081C00003E
:101B80000000007E2120101008040442423F0000A3
:101B900000780808080808080808080808087800F5
:101BA000000002040404080808101020202040400F
:101BB000001E1010101010101010101010101E0029
:101BC00000182400000000000000000000000000D9
:101BD000000000000000000000000000000000FF06
:101BE00000060800000000000000000000000000E7
:101BF000000000000000001C22302C22326C00008B
:101C0000000000000302021A26424242261A000087
:101C100000000000000000384402020244380000C6
:101C2000000000006040407C4242424262DC000012
:101C3000000000000000003C42427E02423C0000E6
:101C4000000000003048083E08080808083E000070
:101C5000000000000000007C22221C023C42423CAA
:101C6000000000000302023A4642424242E70000FE
:101C70000000000C0C00000E08080808083E0000D8
:101C80000000003030000038202020202020221EBC
:101C90000000000003020272120A0E1222770000F6
:101CA000000000080E08080808080808083E0000A0
:101CB000000000000000007F9292929292B7000014
:101CC000000000000000003B4642424242E70000A4
:101CD000000000000000003C42424242423C000042
:101CE000000000000000001B26424242261A0207A4
:101CF000000000000000005864424242645840E086
:101D000000000000000000774C040404041F0000E1
:101D1000000000000000007C42023C40423E000007
:101D2000000000000008083E0808080848300000CD
:101D300000000000000000634242424262DC0000FA
:101D400000000000000000772222141408080000A0
:101D500000000000000000DB91525A2A24240000F9
:101D6000000000000000006E2418181824760000FF
:101D700000000000000000E74224241818080806AC
:101D8000000000000000007E22100808447E0000D1
:101D900000C0202020202020102020202020C00053
:101DA0001010101010101010101010101010101033
:101DB00000030404040404040804040404040300E9
:101DC000045A200000000000000000000000000095
:101DD000DBDE5DEF5DEF7DEF5DEF5DEF5DEF5DEF16
:101DE0005DEF5DEF5DEF5DEF5DEF5DEF5DEFBEF72A
:101DF000FFFFDEFF38C6928C8E6B6E6B107C96AD4B
:101E00003CE7FFFFFFFF7DEF5DEF5DEF5DEF5DEF17
:101E10005DEF5DEF5DEF5DEF5DEF5DEF5DEF5DEF62
:101E20005DEFFFFFFFFFFFFFFFFFFFFFFFFFFFFF74
:101E3000FFFFFFFFFFFFFFFFFFFFFFFFFFFF5DEF64
:101E4000159D4F636C420A32882946192519452190
:101E5000E8318E6B18BEFFFFFFFFFFFFFFFFFFFFA4
:101E6000FFFFFFFFFFFFFFFFFFFFFFFFFFFFFFFF82
:101E70005DEFFFFFFFFFFFFFFFFFFFFFFFFFFFFF24
:101E8000FFFFFFFFFFFFFFFFFFFFDFFFF59C0F538B
:101E9000104B51530F4B6C3AE93167212519E4106F
:101EA000A308620083088A4A59C6FFFFFFFFFFFFAD
:101EB000FFFFFFFFFFFFFFFFFFFFFFFFFFFFFFFF32
:101EC0005DEFFFFFFFFFFFFFFFFFFFFFFFFFFFFFD4
:101ED000FFFFFFFFFFFFFFFF1CE74F5BB363B87C13
:101EE000F56311434D32EA29882126190519051990
:101EF00004110411E4108300A308728CFFFFFFFF9C
:101F0000FFFFFFFFFFFFFFFFFFFFFFFFFFFFFFFFE1
:101F10005DEFFFFFFFFFFFFFFFFFFFFFFFFFFFFF83
:101F2000FFFFFFFFFFFFDBDE4B3AF042356C544B07
:101F3000B1322E2AEB21A9216719051904110411C8
:101F40000411041104110519E4104200AF73FFFFDE
:101F5000FFFFFFFFFFFFFFFFFFFFFFFFFFFFFFFF91
:101F60005DEFFFFFFFFFFFFFFFFFFFFFFFFFFFFF33
:101F7000FFFFFFFF5DEF09324C32104B8F324F2ACB
:101F80002E2ACC1989198921471905190411041120
:101F9000C410C410041104110411E410420031846F
:101FA000FFFFFFFFFFFFFFFFFFFFFFFFFFFFFFFF41
:101FB0005DEFFFFFFFFFFFFFFFFFFFFFFFFFFFFFE3
:101FC000FFFFFFFFEC5247194C320B2AEC21EC21AA
:101FD0000C22915BEE4A061126190419E410E41054
:101FE000A7296621A308051904110411E410820031
:101FF000F7BDFFFFFFFFFFFFFFFFFFFFFFFFFFFF3B
:102000005DEFFFFFFFFFFFFFFFFFFFFFFFFFFFFF92
:10201000FFFF35A58308882188218921AA218A21EB
:102020006B42718CFFFF728C83080411C408294233
:10203000FBDE5DEFEC5A83080411041104118308E0
:10204000E831DFFFFFFFFFFFFFFFFFFFFFFFFFFFA5
:102050005DEFFFFFFFFFFFFFFFFFFFFFFFFFFFFF42
:10206000BEF7C731C4102519261947194719A829E1
:102070008A52284A55ADFFFFE831A30805194D6B78
:102080004D6BFFFF7DEF4521C410041104110411B5
:10209000620076ADFFFFFFFFFFFFFFFFFFFFFFFFC7
:1020A0005DEFFFFFFFFFFFFFFFFFFFFFFFFFFFFFF2
:1020B00096B562000411041905110519C4088B4A6C
:1020C000B6B55DEFF7BDFFFF8E6B62002942AA5ADD
:1020D0000842FFFFFFFFCC528308041104110411D2
:1020E000A308AD52FFFFFFFFFFFFFFFFFFFFFFFF52
:1020F000BEF7FFFFDFFFDBDEFFFFFFFFFFFFFFFF9E
:102100004E636200041104110411E41062008E6336
:10211000FFFFFFFFFFFFFFFFCF730100F39C2C6366
:1021200096B5FFFFFFFF2D5B83000411041104111E
:10213000E41067213DEFFFFFFFFFFFFFFFFFFFFF01
:10214000B7B576AD7DEFCB52B394FFFFFFFFDFFF56
:10215000E831A3080411041104110411A308494231
:10216000FFF7FFF7FFFFFFFF6A4A01007284FFFFDE
:10217000FFFFFFF7DFEF093AA30804110411041170
:102180000411051118BEFFFFFFFFFFFFFFFFFFFF58
:10219000F07B6200E831C731410035A5FFFF5DEFFC
:1021A0004621C4100411041104110411E410A30801
:1021B000769DFFF7FFFFB7ADA308A308C7319EE7E1
:1021C000FFF7FFF776A5A308E4100411041104112A
:1021D0000511051135A5FFFFFFFFFFFFFFFFFFFF03
:1021E000DBDEA7298300C410C410C4101CE79EEFD7
:1021F0000511E41004110411041104110419C40898
:10220000E510D16BD16BC5086400A50843002B32E3
:10221000779DB3842519C41004110411041104110D
:1022200025192609359DFFFFFFFFFFFFFFFFFFFF79
:10223000FFFFAF7362000419051982000D5B8E9BCE
:1022400062100511041104110419E4108500051130
:10225000C439815A407B229C43AC03A4839B827285
:102260008249C218A400C500E4100419041105191C
:1022700047196711EC5ABEFFFFFFFFFFFFFFFFFF8B
:10228000DFFFDBD6C410E41004110511A41801C04F
:102290008388E40005190419C5084421438323D524
:1022A00042FEE4FE27FF07FFA4FE64FE03FEA3FD3B
:1022B000E2FC42EC83B32462E510C4080419261939
:1022C000A81987210090D3BCFFFFFFFFFFFFFFFF8E
:1022D0005DEFFFFFF07B420005190511832801D057
:1022E00044F8A348E400C508445A02EDE2FD02FEAA
:1022F00066FE74FFB8FF73FFE7F6A6F645F6A4F591
:10230000C3FC62FCC2FCC2FCE3CBC44906118819C1
:102310008701A49001F8EC9AFFFFFFFFFFFFFFFF8A
:102320005DEFFFFF9EF7E83183000509824001C0A1
:1023300023F885F0A348A400445A02FD23CCC2DC54
:1023400004FE28FE48F646F624F6E4F564FDE3FCB8
:1023500062FCC2FC02E402DCE2FCA47A48016701F0
:10236000C47824F802F884B07DE7FFFFFFFFFFFF89
:102370005DEFFFFFFFFFDBDE2519A300C43802E09D
:1023800022D844F8A6F8A4786300432183728339E5
:10239000829B21F561FD22FDE2FCA2FC42FC42FC95
:1023A00042FC22AB8341C392045226012519A49812
:1023B00044F823F802F8A4D09EEFFFFFFFFFFFFFD1
:1023C0005DEFFFFFFFFFFFFF9AD68729A50043B807
:1023D00022F823E065F8E8F807C983484200A30023
:1023E00084006329A27A62B3A2CB62D302BB828A41
:1023F0008339A400E500E500E508C46064D844F82A
:1024000024F823F802F88388DBC6FFFFFFFFFFFFF5
:102410005DEFFFFFFFFFFFFFFFFF3DE7505B083170
:1024200023E843F844F065F809F9ABF989D1068946
:10243000A34842180200420061008200620062006C
:102440008300A320C450A58885D865F844F844F8D3
:1024500023F823F803D08210C7295DEFFFFFFFFFA9
:102460005DEFFFFFFFFFFFFFFFFFFFFFFFFF6C328E
:10247000A53802D823F865F866F8A7F84AF90CFAE7
:102480004DFA4CEA0BD2A9B968B147A927B107B9EF
:1024900007D1E7E8C7F8A7F865F865F844F823F826
:1024A00003F802D0A3280509C408EC5AFFFFFFFF78
:1024B0005DEFFFFFFFFFFFFFFFFFFFFFFBDE0519E3
:1024C000C400A741E6C003F886F8A7F887F886F8A5
:1024D000C7F829F98AF9ABF9ABF98BF96AF929F947
:1024E00008F9C7F8A6F886F865F864F823F802F04A
:1024F00006B12529E400E41025192519149DFFFFD4
:102500005DEFFFFFFFFFFFFFFFFFFFFF96AD6200E4
:1025100082083595BACE8BA244D025F887F8A7F863
:10252000C7F8A7F887F886F886F886F887F8A7F836
:10253000A7F8A6F885F865F864F824F064B80D9358
:10254000BBB6CF6383080411E4106621493A5DEFFE
:102550005DEFFFFFFFFFFFFFFFFFFFFFD394420090
:10256000E410BBCEFFFFBEE776B5CCAA07C145E0BD
:1025700045F846F866F886F886F886F886F865F82D
:1025800045F865F865E844D043A8018882903CD7B7
:10259000FFEF559583080411041105194619B394EA
:1025A0005DEFFFFFFFFFFFFFFFFFFFFFB394410061
:1025B00086215DDFFFFFFFFFFFFFDFE77AC6D3B4B1
:1025C0004EB32AC268D1E6E0A6E8A5E8A5E8E6D8B9
:1025D00088C906A922A802A800A000C800D8F7E56B
:1025E000FFE7F8ADC410E4100411E41005118B4AA4
:1025F0005DEFFFFFFFFFFFFFFFFFFFFF55A541005E
:10260000A7295DDFFFF7FFFFFFFFFFFFFFFFFFFFD2
:10261000FFEF7DDFDBCE59CEF8CDD7CDF7C579CE34
:10262000FBBEABA203F045F842D043E800F072D401
:10263000FFDF39AEE410E4100411E410051187291E
:102640005DEFFFFFFFFFFFFFFFFFFFFF59CE830896
:1026500046211CD7FFF7FFFFFFFFFFFFFFFFFFFF34
:10266000FFFFFFFFFFFFFFFFFFFFFFFFFFFFFFFF7A
:10267000FFEF8BBA04F845F862E044F000F88EDB17
:10268000FFDFF8A5C410E410E4100411E4102519CC
:102690005DEFFFFFFFFFFFFFFFFFFFFFBEF7872993
:1026A000830839B6FFF7DFF7FFFFFFFFFFFFFFFFEC
:1026B000FFFFFFFFFFFFFFFFFFFFFFFFFFFFFFFF2A
:1026C000BEE74ABA03F845F864F844F800F86EE348
:1026D000FFD7F48C83080411E410E410E41005190A
:1026E0005DEFFFFFFFFFFFFFFFFFFFFFFFFFEF7348
:1026F00000007284FFEFBEEFDFFFFFFFFFFFFFFF71
:10270000FFFFFFFFFFFFFFFFFFFFFFFFFFFFFFFFD9
:10271000DFE78BBA03F845F845F823F800F8D3D47F
:10272000FFD74E5B2100293A55A58308C41025190F
:102730005DEFFFFFFFFFFFFFFFFFFFFFFFFFFBDE80
:10274000A308E8319EDF9EE7BFEFFFFFFFFFFFFF1B
:10275000FFFFFFFFFFFFFFFFFFFFFFFFFFFFFFFF89
:10276000FFF751BC02E003F803F043E0ECC27ECF78
:10277000FCBE46212100D394FFFF5184000087292D
:102780005DEFFFFFFFFFFFFFFFFFFFFFFFFFFFFF0B
:1027900051840000F48CFFEF9EE7BFEFDFFFFFFFE7
:1027A000FFFFFFFFFFFFFFFFFFFFFFFFFFFFFFFF39
:1027B000FFFF3DDF55BD52BC72BCB7B55DC7FFDF43
:1027C000F06B0000093ABFF7FFFFFFFF149D55A50E
:1027D0005DEFFFFFFFFFFFFFFFFFFFFFFFFFFFFFBB
:1027E000FFFFAC4AA408BBBEDFE77EE7BEEFDFF722
:1027F000DFFFFFFFFFFFFFFFFFFFFFFFFFFFFFFF09
:10280000DFFFDFF7FFEFDFDFBFD79ED7DFDFD8A522
:1028100083082611DBD6FFFFFFFFFFFFFFFFFFFF4F
:102820005DEFFFFFFFFFFFFFFFFFFFFFFFFFFFFF6A
:1028300079EE8BDC2131A9213DCFBFDF7EDF9EE722
:10284000BEEFBFEFDFF7DFF7DFF7DFF7DFF7BFEF51
:10285000BEEF9EE77EDF5ED75ED7DFDF9AB6261932
:102860004208EDA3BFFFFFFFFFFFFFFFFFFFFFFFDA
:102870005DEFFFFFFFFFFFFFFFFFFFFFFFFF74DDC7
:10288000C0DB00FE42EE024289217BB6DFDF7ED74D
:102890007EDF7EDF9EE79EE79EE79EE79EE77EDF88
:1028A0007EDF5DD75DD79EDFFFE7F8A50711E31850
:1028B00002C560FDE6D3DBEEFFFFFFFFFFFFFFFF7A
:1028C0005DEFFFFFFFFFFFFFFFFFFFFF9EF784BAF3
:1028D000C1FC42FE82FEA2FE8183452174745EC764
:1028E000DFDF7ED75ED75DD75ED75ED75DD75DD79A
:1028F0005ED79EDFFFE73DC7F1638408425226E6BC
:1029000029FF86FEE0F36AC3FFFFFFFFFFFFFFFF23
:102910005DEFFFFFFFFFFFFFFFFFFFFF18DEC1D2EC
:10292000A2FD22FE42FE42FE62FEE2D4416A49421C
:1029300053743BA63EC7BFD7BFD7BFD7BFDFBFD7F4
:102940003EC71AA6F263A729824122B462FE83FE23
:10295000AAFE0FFF67FD63BA3CEFFFFFFFFFFFFF1B
:102960005DEFFFFFFFFFFFFFFFFFFFFF9AE680D253
:1029700021FDC2FDE2F5C2F582F582FD62FD61DC5A
:10298000219B846AE96A2C63AF6311746E632C63C4
:10299000895A0452817AC2CBE2FC62FD82FDC2FDFB
:1029A000C2FDE4FD24FD62CA1CE7FFFFFFFFFFFF3D
:1029B0005DEFFFFFFFFFFFFFFFFFFFFFFFFFB1CC5A
:1029C00081D2C0F3C1FC02FD02FDE2FCC2FCC2FCEC
:1029D00081FC80FBC0C9A48135AD59CE719C218199
:1029E00000DAA1FB82FCA2FC82FCA2FC02FD22FD1B
:1029F000E2FC00FC60DA90CCFFFFFFFFFFFFFFFF6F
:102A00005DEFFFFFFFFFFFFFFFFFFFFFFFFFFFFF88
:102A100059DE0DC406CBE4D203DB03DBE3DAC3D219
:102A2000A4C209B3D2BC9EF7FFFFFFFFFFFFFBE686
:102A30000EB4A6BA83D2E3E202EB22EB22E303DB7D
:102A4000E4D26AC3B6D5FFFFFFFFFFFFFFFFFFFF22
:102A5000000023FC1040108001440668F0B01128EB
:102A6000166810A41124162010A0284047FE00006C
:102A70000000FFC0004000440048005000600050CB
:102A800000480044002000200012000A0006000256
:102A900008101D10F09010901010FD10109038903C
:102AA0003410501E53F09010101010101010101011
:102AB00010201020102013FEFC201020102015FCE8
:102AC00018843088D04810501020105051882606A5
:102AD0000000000000000000002F000000000700C0
:102AE000070000147F147F1400242A7F2A1200623A
:102AF00064081323003649552250000005030000E6
:102B000000001C224100000041221C000014083E6D
:102B100008140008083E0808000000A06000000833
:102B20000808080800006060000000201008040287
:102B3000003E5149453E0000427F40000042615145
:102B40004946002141454B31001814127F100027DF
:102B500045454539003C4A494930000171090503A2
:102B600000364949493600064949291E00003636D3
:102B70000000000056360000000814224100001436
:102B80001414141400004122140800020151090613
:102B900000324959513E007C1211127C007F494994
:102BA0004936003E41414122007F4141221C007FC5
:102BB00049494941007F09090901003E4149497AD3
:102BC000007F0808087F0000417F4100002040414D
:102BD0003F01007F08142241007F40404040007FB9
:102BE000020C027F007F0408107F003E4141413EFD
:102BF000007F09090906003E4151215E007F091945
:102C000029460046494949310001017F0101003F41
:102C10004040403F001F2040201F003F4038403FC1
:102C20000063140814630007087008070061514925
:102C3000454300007F41410000552A552A550000B8
:102C400041417F0000040201020400404040404036
:102C5000000001020400002054545478007F4844CE
:102C6000443800384444442000384444487F003805
:102C70005454541800087E0901020018A4A4A47C2E
:102C8000007F080404780000447D400000408084F8
:102C90007D00007F102844000000417F4000007C40
:102CA00004180478007C080404780038444444384C
:102CB00000FC242424180018242418FC007C080498
:102CC000040800485454542000043F444020003C71
:102CD0004040207C001C2040201C003C4030403CF8
:102CE000004428102844001CA0A0A07C0044645488
:102CF0004C441414141414140000000000000000CC
:102D00000000000000000000000000F800000000CB
:102D1000000000333000000000100C06100C06000C
:102D2000000000000000000040C07840C078400073
:102D3000043F04043F040400007088FC08300000D5
:102D4000001820FF211E0000F008F000E01800002D
:102D500000211C031E211E0000F0088870000000E6
:102D60001E2123241927211010160E000000000038
:102D70000000000000000000000000E01804020055
:102D8000000000071820400000020418E0000000C6
:102D90000040201807000000404080F080404000C4
:102DA0000202010F01020200000000F0000000001A
:102DB0000101011F010101000000000000000000EE
:102DC00080B0700000000000000000000000000063
:102DD00000010101010101010000000000000000EC
:102DE0000030300000000000000000008060180487
:102DF000006018060100000000E010080810E00064
:102E0000000F102020100F00001010F8000000002C
:102E10000020203F20200000007008080888700073
:102E200000302824222130000030088888483000F3
:102E30000018202020110E000000C02010F8000013
:102E400000070424243F240000F8088888080800AC
:102E50000019212020110E0000E0108888180000C1
:102E6000000F112020110E0000380808C838080093
:102E70000000003F00000000007088080888700013
:102E8000001C222121221C0000E010080810E00094
:102E90000000312222110F00000000C0C00000001D
:102EA0000000003030000000000000800000000042
:102EB000000080600000000000008040201008003A
:102EC0000001020408102000404040404040400003
:102ED00004040404040404000008102040800000DE
:102EE0000020100804020100007048080808F000E3
:102EF0000000003036010000C030C828E810E000B3
:102F00000718272423140B000000C038E00000003D
:102F1000203C23020227382008F8888888700000A7
:102F2000203F202020110E00C0300808080838007B
:102F3000071820202010080008F808080810E000F2
:102F4000203F202020100F0008F88888E808100093
:102F5000203F20202320180008F88888E808100067
:102F6000203F200003000000C0300808083800009F
:102F700007182020221E020008F808000008F808A0
:102F8000203F210101213F20000808F80808000027
:102F90000020203F2020000000000808F80808005A
:102FA000C08080807F00000008F888C028180800D2
:102FB000203F20012638200008F80800000000000B
:102FC000203F20202020300008F8F800F8F8080002
:102FD000203F003F003F200008F830C00008F808FC
:102FE000203F200007183F00E01008080810E0000C
:102FF0000F10202020100F0008F808080808F00023
:10300000203F210101010000E01008080810E00045
:103010000F18242438504F0008F8888888887000DA
:10302000203F2000030C302000708808080838007A
:103030000038202121221C00180808F80808180070
:103040000000203F2000000008F808000008F808F1
:10305000001F202020201F000878880000C83808A2
:10306000000007380E010000F80800F80008F8001A
:10307000033C0700073C03000818688080681808B4
:1030800020302C03032C30200838C800C838080032
:103090000000203F2000000010080808C838080081
:1030A0002038262120201800000000FE0202020025
:1030B0000000007F40404000000C30C000000000D5
:1030C000000000010638C00000020202FE000000FD
:1030D000004040407F0000000000040202020400A3
:1030E00000000000000000000000000000000000E0
:1030F00080808080808080800002020400000000C8
:1031000000000000000000000000808080800000BF
:103110000019242222223F2008F8008080000000AD
:10312000003F112020110E00000000808080000070
:10313000000E112020201100000000808088F8007F
:10314000000E112020103F200000808080800000B1
:10315000001F222222221300008080F08888881815
:103160000020203F20200000000080808080800020
:10317000006B94949493600008F8008080800000B5
:10318000203F210000203F20008098980000000090
:103190000020203F202000000000008098980000C0
:1031A00000C08080807F000008F8000080808000E0
:1031B000203F24022D302000000808F80000000005
:1031C0000020203F202000008080808080808000C0
:1031D000203F20003F20003F808000808080000052
:1031E000203F210000203F200000808080800000E0
:1031F000001F202020201F00808000808000000011
:1032000080FFA12020110E0000000080808080003F
:10321000000E112020A0FF80808080008080800030
:1032200020203F212000010000008080808080005D
:103230000033242424241900008080E080800000D2
:103240000000001F2020000080800000008080001F
:10325000001F202020103F20808080000080808080
:1032600000010E3008060100808000800080808010
:103270000F300C030C300F00008080008080800035
:103280000020312E0E312000808080000080808060
:1032900080818E7018060100008080808080800010
:1032A0000021302C2221300000000000807C02022E
:1032B00000000000003F404000000000FF00000050
:1032C00000000000FF0000000002027C80000000FF
:1032D0000040403F0000000000060101020204041B
:1032E0000000000000000000404042CC002022927C
:1032F0004A36E242A21200000040201F2049494401
:1033000052615F4041464000020202020202020294
:1033100002FE40A0100800000000000000000000B5
:1033200000030C102142F0002424A4FEA32200225A
:10333000CC0000FF00000000080601FF00010404AB
:10334000040404FF02020200101010FF109008880D
:103350008888FF88888808000444827F0180804034
:10336000432C10284681800088330008000000208C
:10337000E00000006009000868340008E000002058
:103380002004000070090008000000000000000098
:103390000000000000D8B805000000000000000098
:1033A0000102030406070809000000480004004861
:1033B00000080048000C0048003001400038004080
:1033C000002C0140000801400000004000040040C3
:1033D00000400140004401400048014000380140E5
:1033E000004400401B1C00006400000000000000BE
:1033F000010000000200C201030032000400BC0012
:103400000500320006000000070000000800200050
:1034100000000000010000000200000003000000A6
:103420000400000005000000060000000700000086
:10343000080000000000010000000200300003004E
:1034400032000400A0000500780000000000010028
:10345000000002000000030000000400000005005E
:08346000000000000000000064
:04000005080000C12E
:00000001FF
